:020000040800F2
:10000000E8080020AD010008D9320008D13200080C
:10001000D532000845150008B93500080000000079
:100020000000000000000000000000005D34000837
:10003000491500080000000059340008D9340008B0
:10004000C7010008C7010008C7010008C701000870
:10005000C7010008C7010008C7010008C701000860
:10006000C7010008C7010008C7010008C701000850
:10007000C7010008C7010008C7010008C701000840
:10008000C7010008C7010008C7010008C701000830
:10009000C7010008C7010008C7010008C701000820
:1000A000C7010008C7010008C7010008C701000810
:1000B000C7010008E1340008C7010008C7010008B3
:1000C000C7010008C7010008C7010008C7010008F0
:1000D000C7010008AD350008C7010008C7010008C6
:1000E000C7010008C7010008C701000800F002F8B6
:1000F00000F04DF80AA090E8000C82448344AAF175
:100100000107DA4501D100F042F8AFF2090EBAE872
:100110000F0013F0010F18BFFB1A43F0010318473B
:10012000A0590000C0590000103A24BF78C878C117
:10013000FAD8520724BF30C830C144BF04680C60ED
:10014000704700000023002400250026103A28BF35
:1001500078C1FBD8520728BF30C148BF0B60704739
:10016000662905F0CD83002070471FB500F076FBAF
:1001700004000020002104F003FB401C606000200C
:10018000002104F0E7FAE0601FBD10B510BD00F0DB
:1001900091FC1146FFF7E9FF03F038FB00F034FF54
:1001A00003B4FFF7F2FF03BC01F0B6F9094880473A
:1001B00009480047FEE7FEE7FEE7FEE7FEE7FEE749
:1001C000FEE7FEE7FEE7FEE704480549054A064B61
:1001D00070470000DD340008ED000008E802002050
:1001E000E8080020E8040020E80400200FB41CB553
:1001F000074B06AA7B4469460090059800F0BDFABB
:100200000020694600F0CCFA1CBC5DF814FB00002D
:10021000A90500002DE9F0410E46044600202062A9
:100220002046E168884730B3252805D0D4E901216C
:100230009047206A401CF2E7E16820460027884783
:10024000050018D0A5F14100192802D820354FF437
:1002500000673246294620462760FFF781FF40B1FC
:10026000012804D0F61D26F007060836D8E7361D0B
:10027000D6E72846DAE7206ABDE8F08130B50546C2
:100280000B462A4613F8014B12F8010B08B1A042A5
:10029000F8D01CB1002802D06D1CF1E7284630BD13
:1002A00040EA0103024630B59B0710D14FF00134FC
:1002B00000E008C208C91D1B9D4315EAC41FF8D001
:1002C00013F0FF0102F8011B0DD01B0AF8E711F82B
:1002D000013B002B02F8013B05D011F8013B002B3C
:1002E00002F8013BF3D130BD4FF0000200B51346D8
:1002F00094469646203922BFA0E80C50A0E80C5046
:10030000B1F12001BFF4F7AF090728BFA0E80C50F6
:1003100048BF0CC05DF804EB890028BF40F8042BEF
:1003200008BF704748BF20F8022B11F0804F18BF5C
:1003300000F8012B704770477047704710B500F008
:1003400091FA006810BD10B5044600F08BFA046005
:1003500010BD2DE9FF4F0C461E464FF0FF378BB006
:10036000D2E90001DDF860800A908A46C1F30A559F
:1003700005B93D46002108464FF00000BAF1000FD4
:1003800000F4400005DA00EB80004FF4400101EA80
:1003900050004FEA9059B9F1010F00DDB9460A98B3
:1003A00050EA4A000ED044F61050A5F2FF354543FE
:1003B0002F14B8F1000F1ED07542291E1EDDC9F1A1
:1003C00000021CE0B8F1010F4FF0000001D0302115
:1003D00003E0F24305E02154401CB042FBDB304611
:1003E0000022002121540B99C1F80880C1E90020A6
:1003F0000FB0BDE8F08FBD1B6D1CDEE74A4600DA8A
:10040000694206A800F0E0FA06AB93E8070003ABE8
:1004100083E8070050460A9903F050FC8DE8070076
:10042000A0F500501F3800900398002D0ADD42F21D
:100430001F014A460844002303A90390684603F0BD
:10044000FBFE09E0A0F500504A461F38002303A92F
:100450000390684603F01AFF8DE807000004000CC3
:1004600003D04FF0FF30410800E01046B8F1000F14
:1004700003D00022009215461EE0751E05D400F040
:10048000F5F9303262556D1EF9D5B34601220843A5
:1004900002D000227F1C04E02078302801D1002205
:1004A0007F1E002A099784D01DE0112D07DA00F085
:1004B000DDF9303262556D1C50EA0102F5D1084376
:1004C00002D00098C8B10EE00021681E05E0235C50
:1004D000625C63542254401E491C8142F7DBAB46E8
:1004E000A81B401E0990002004F80B000B98099AE5
:1004F000C0F80880C0E9002B7AE711264FF0000809
:1005000057E72DE9F04F88460446D21D22F0070137
:1005100091B0D1E90001CDE90A0104F003F80246E7
:100520000B98C00F01D02D2007E02068810701D56E
:100530002B2002E0202101EAC000032A099001D00B
:10054000072A05DB03464146204600F0DDF90BE1B2
:100550002078800601D5E06900E00620B8F1650F3B
:10056000814606D0B8F1660F18D0B8F1670F70D188
:1005700031E00020B9F1110F009001DB112301E0FF
:1005800009F101030AAA01A90CA8FFF7E2FEDDE9BF
:100590000C70002609F10105834647E001204B4617
:1005A00000904FF000470AAA01A90CA8FFF7D1FE5E
:1005B000DDE90DB00C995D46002610B909F1010086
:1005C0000D18B9EB050003D4C0F1FF3609F10105A0
:1005D000A5EB09002BE0B9F1010F01DA4FF0010999
:1005E0000020B9F1110F0090484601DD112300E011
:1005F00003460AAA01A90CA8FFF7ABFEDDE90C70BF
:100600004D4600268346207800070AD4AB4500DA21
:100610005D4601A8012D04DD411911F8011C3029A6
:1006200007D04F4502DA17F1040F04DA01208246A1
:100630000FE06D1EEEE7002F02DCED1B3E4403E0F1
:10064000781CA84200DD7D1CB81B00F1010A4FF0A8
:1006500000472078000703D4AA4501DB4FF0FF3A9A
:100660000021B7F1004F0DF143088DF8431024D05D
:1006700002202B23002F01DA7F422D230A21021EA4
:10068000A0F1010000DC5FB197FBF1FC97FBF1F2F8
:1006900001FB1C7C17460CF1300C08F801CDEEE78D
:1006A000A8F1010003702188090501D5452100E06A
:1006B0006521A0F1010800F8011C09980FA9A1EB20
:1006C0000807FF1D00B10120411901EBEA70A16983
:1006D0003844081A401EA0612078C00602D4204683
:1006E000AFF30080099828B1D4E901219047206A2E
:1006F000401C20622078C00622D52046AFF300803F
:100700001EE0002E04DBB34502DD01A8805D00E0A1
:100710003020D4E901219047206A401C2062761CD9
:10072000AAF101005FEA000A0AD100F097F8C06858
:100730000168405CD4E901219047206A401C206296
:10074000281EA5F10105DCDC07E0D4E9012118F839
:10075000010B9047206A401C2062381EA7F1010758
:10076000F3DC2046AFF30080032011B041E6000027
:1007700001694A1C02610878704700B58FB0CDE965
:1007800001310021059105497944CDE90310114655
:100790006846FFF73FFD0FB000BD0000E5FFFFFF1B
:1007A0000A6802F8010B0A60704700000FB40B00E2
:1007B00010B54FF000048AB00FA900910E99CC60DB
:1007C000234C7C44234A7A44CDE9064200D00423DA
:1007D0006FF00042CDE901321F4A7A446B4608921D
:1007E0000246002005F0EEF80AB010BC5DF814FBDC
:1007F000F0B507464FF0FF301E4615460C463B4607
:1008000085B06A460091CDE901013146002004908F
:1008100004A8FFF7CBFF04990346601825B109B17E
:10082000024600E022462A6000290ED0002B02DD9D
:100830000099814209D03B466A463146001B00942C
:10084000CDE9010404A8FFF7B1FF05B0F0BD000039
:10085000C3010000DD0100001901000000487047DD
:1008600030000020004870471000002030B5B0F183
:100870000A0271F100034FEA900E4EEA817EB0EB5E
:100880000E0061EB91014FEA101E4EEA017E10EB63
:100890000E0041EB11114FEA102E4EEA016E10EBE3
:1008A0000E0041EB11214FEA104E4EEA014E10EBC3
:1008B0000E0041EB1141401841F100014FEAD00018
:1008C00040EA41704FEAD1014FEA810444EA907452
:1008D00010EB800544EB01046D1944EB0404521B3A
:1008E000A3414FF0000348BF0A3200D530BD401C81
:1008F00041F1000130BD10B5044600F001F9006877
:10090000005D00F0010010BD2DE9F0411F460446D6
:1009100003260168072A01F4006004DB08B116A56C
:1009200005E016A503E008B115A500E015A521F026
:1009300010002060A069C01EA0610FB1401EA06120
:100940002046AFF300804FB1D4E9012138469047EB
:10095000206A401C2062C01C206206E0206AFAE780
:10096000D4E9012115F8010B9047761EF8D22046F4
:10097000AFF30080BDE8F0814E414E006E616E0025
:10098000494E4600696E6600426842B1016811F83E
:10099000013B23B1521EC0E90012184670470121E5
:1009A000C160881E704742685AB1C368016843B984
:1009B00083688B4205D0491E521CC0E900120020FA
:1009C00070474FF0FF3070472DE9F04781461646DB
:1009D0008AB0354878440DC88DE80D003248784417
:1009E000801C03AC0DC884E80D0041F69B30084420
:1009F000372190FBF1F290FBF1F5A5F1800501FBA9
:100A000012041B3C02D56442012000E00020DFF804
:100A100098A080460027FA44AAF1BE0A0EE0E0073B
:100A20000AD03246684607EB470101230AEB8101F1
:100A300003F02CFC8DE8070064107F1C002CEED125
:100A4000194F7F44AE3F19E0E80715D007EB0410BB
:100A50000DF1180A90E80E008AE80E00C068F04216
:100A600001D1981908903246012306A903A803F082
:100A70000DFC03AB83E807006D10641C002DE3D16F
:100A80004FF0010332466946B8F1000F03A802D0C7
:100A900003F0D2FB01E003F0F9FBC9E90001C9F85A
:100AA00008200AB0BDE8F087A45000000048704755
:100AB000100000207546FFF7F9FFAE4605006946B5
:100AC000534620F00700854618B020B5FFF77CFBA1
:100AD000BDE820404FF000064FF000074FF000083F
:100AE0004FF0000BAC46ACE8C009ACE8C009ACE87C
:100AF000C009ACE8C00921F007018D46704700002D
:100B000010B5FFF7ABFE001D10BD00BF753C000027
:100B10002DE9FF4F06468BB00878FF2806D0491C08
:100B20002D2805D000244FF0000908E000200CE03B
:100B30000124F8E709EB8903491C00EB4309087815
:100B4000FF28F7D114B1C9F10000814610780025C3
:100B50002C46AA4629462D2801D02B2804D1521C08
:100B60002D2813D0002082468B461078FF280FD006
:100B70004FF0000C0A21521CA5FB017804FB0181F7
:100B800005FB0C11C5194BEB0104EEE70120EAE768
:100B9000002108464FF00000BAF1000F02D000EB30
:100BA00080004008C0F38157012F01DD4FF0FF376F
:100BB0000E9955EA040009EB01080BD04FF0020929
:100BC00018F5FA7F16DA4FEACA70002F706008DD58
:100BD000012007E04FEACA70C6E900B00FB0BDE8D7
:100BE000F08F00203060FFF73DFEC0F80090182124
:100BF000084616E0B8F5FA7F18DD002F02DAF7484C
:100C0000784401E0F6487844D0E90010C6E90010C5
:100C100040EACA707060FFF725FEC0F8009014210A
:100C200008460FB0BDE8F04F04F067BE002108464B
:100C30004FF00000B8F10001099002DAC7F100029C
:100C400000E03A4601DAC8F1000106A8FFF7BCFE51
:100C500006AB93E8070003AB83E8070044F23E00CD
:100C60005BEA04010090584604D144F21E012C4670
:100C70005D460091210C0904014306D1009924042A
:100C800044EA15442D041039009104F07F410143DA
:100C900006D10099240244EA15642D020839009116
:100CA00004F07041014306D10099240144EA15740F
:100CB0002D01091F009104F04041014306D1009924
:100CC000A40044EA9574AD00891E009104F000412F
:100CD000084304D100986D196441401E00904FF004
:100CE00001033A466846B8F1000FCDE9014503A972
:100CF00002DD03F0E0FA01E003F0B3FABAF1000F0D
:100D000004460D4601D084F00044002108464FF00F
:100D10000000099940F2FF77484010F00C0F07D10E
:100D200024F00040284303D0C4F30A50B84212D143
:100D3000FFF798FDC0F80090C4F30A50B8420AD1FA
:100D4000A8487844D0E90010C6E9001004F000413A
:100D50000843706042E7C6E900543FE72DE9FF4FC2
:100D60001F464FF0000A4FF0FF38454691B0D7E9D3
:100D70000146CDF83CA0FFF771FDC0680168405CFA
:100D80001090B96912986D1C8847396A8146884766
:100D90000028F6D1B9F1FF3F0AD0002E24F4D06428
:100DA00011DDB9F12B0F08D0B9F12D0F0BD102E0F5
:100DB000404615B013E744F48064B96912986D1C7D
:100DC0008847761E8146600504A901D52D2000E0E4
:100DD0002B20002E01F1010B0DF130088DF81000D1
:100DE0003FDDB9F1690F08D0B9F1490F05D0B9F16C
:100DF0006E0F02D0B9F14E0F1CD13B4601A80095F1
:100E000080E85002DDE912126FF0020004F0DEFD0E
:100E1000C11CCED10EE0B96912986D1C884781467D
:100E20001398761E44F4007405600F98401C002E41
:100E30000F9016DDB9F1300FEDD0B9F1780F02D077
:100E4000B9F1580F0DD10F9801280AD13B46CDE9D1
:100E50000054DDE91212001F029604F0B5FDC11C1A
:100E6000A7D1109989453ED144F0800406E013993A
:100E7000681CAAF1010A44F400740860B9696D1C89
:100E80001298761E884730288146F0D02BE01099C2
:100E9000894505D1200603D4761E44F0800418E06D
:100EA000484603F0D4FB08B3761E0DF123029345A8
:100EB000A9F1300044F4007406D20BF8010B2006AF
:100EC00007D5AAF1010003E0200602D40AF10100CF
:100ED0008246A00502D51399681C0860B96912986A
:100EE0006D1C88478146002ED1DC53E0002E51DD79
:100EF000B9F1650F02D0B9F1450F4BD1A00549D525
:100F0000B9696D1C1298761E24F440748847002E2F
:100F100081460CDD2B2804D0B9F12D0F07D144F404
:100F20008074B96912986D1C8847761E8146E00569
:100F300001D52D2100E02B2108F8011BCDF8008000
:100F400021E0761E0DF13901884544F400740CD27D
:100F5000A9F1300010F0FF0088F8000002D10099DC
:100F6000884509D908F1010806E0E00501D51E48C9
:100F700001E042F20F708246B96912986D1C8847F1
:100F8000814613980560002E04DD484603F05FFBA0
:100F90000028D6D1F96912988847FF2053468BF86C
:100FA000000088F8000000200A900B9004AA0CA909
:100FB0000AA8FFF7ADFDA00502D46FF00100F8E626
:100FC00014F0240F12D0E0071CD13868DDE90A12B2
:100FD000031D3B600068C0E9001213E0E44E00000E
:100FE000D64E00009A4D0000F1D8FFFF0AA96846CE
:100FF00003F0BCFAE00705D13868009A011D39609A
:10100000006802602846D4E610B50446AFF30080BD
:101010002046BDE81040FFF7C3B800004FF0013C88
:1010200050F8042B51F8043B9A4221D1A2EB0C0357
:10103000934313EACC1317D150F8042B51F8043B17
:101040009A4215D1A2EB0C03934313EACC130BD1B4
:1010500050F8042B51F8043B9A4209D1A2EB0C033F
:10106000934313EACC13DBD04FF00000704700BF6E
:10107000D01A01BAB1FA81F101F0180122FA01F097
:10108000CB40DBB2C0B2C01AC1F120012CFA01F38F
:10109000D11A914311EAC311E6D17047B2F120038E
:1010A0000AD5C2F1200301FA02F120FA03F341EA62
:1010B000030100FA02F0704700FA03F14FF000005C
:1010C000704700002DE9FF4F1F464FF03C0987B0E5
:1010D0004FF00042DDE9141001F10108DDF858A0DD
:1010E00002EA4050039000200590834605460446DE
:1010F0000490B969461E08988847AAF1010A02902F
:10110000BAF1000F3BDD02982E2815D0102100F017
:1011100009FA00282EDB4FF0010B0599014317D087
:10112000B9F1000F0BDB4A46C117FFF7B7FF0543C4
:101130000C43A9F1040905E0012004900BE008B17B
:1011400045F0010501200590049820B9361D02E004
:10115000049800B1361FB969089808F1010888475A
:10116000BBF1000FAAF1010A0290C9D00999C1F898
:101170000080C5E70298702808D0502806D0F96989
:1011800008988847BBF1000F14D04FE00020029070
:101190000120BBF1000F049009D0B969089808F14B
:1011A00001088847AAF10109B9F1000F07DCF969C4
:1011B000089888476FF001000BB0BDE8F08F2B282E
:1011C00004D02D280CD14FF0FF300490B969089855
:1011D00008F101088847A9F10109B9F1000FE6DD1E
:1011E000411CE4D00A2100F09DF90028DFDB0299C0
:1011F00008F1010801EB810100EB41000290B9699F
:10120000089888470A2100F08DF9099AA9F1010987
:10121000B9F1000FC2F8008001DD0028E7DAF969B2
:10122000089888470499029800FB016655EA040073
:1012300004D004F04041090002D006E0039898E091
:10124000A40044EA9574AD00B61E04F00041080005
:1012500002D16D196441761E159810F0240F03D049
:101260004FF00B095C4803E04FF028096FF07D0058
:101270008246564507DAAAEB06018944B9F1410FC7
:1012800001DD4FF0410901200021A9F10102FFF722
:1012900005FF024628400B462140084301D00121AA
:1012A00000E00021501E029143F1FF31284021400F
:1012B000084301D0012000E000200299834651EA52
:1012C0000B014FD0002108464FF00000039900F4B5
:1012D000400039B100EB80004FF4400100EBD070CA
:1012E00001EA60008015012802DD4FF0FF3000E0C8
:1012F00013D0401C36D0029860B3BBF1000F0CD164
:101300004A4601200021FFF7C9FE2840214008433A
:1013100001D0012000E00020E0B101204A46002178
:10132000FFF7BCFE034640190A4661412D1A8C4165
:1013300011D3B9F1400F09DD159810F0240F02D038
:10134000AAF1340603E0AAF1170600E0761C002596
:101350004FF0004406E05B1E42F1FF3220EA030535
:1013600021EA0204CAF10100B04206DA1B490398DF
:1013700008430190002000900EE0039AC4F3D321AB
:10138000E80A0A43164940EA44500A433146CDE987
:101390000002684603F050F9159810F0240F0BD0A6
:1013A0001598C00715D13868DDE90012031D3B60B0
:1013B0000068C0E900120CE002A8694603F0D6F804
:1013C0001598C00705D13868029A011D3960006878
:1013D00002604046F0E6000002FCFFFF0000F07FE4
:1013E0000000F03F2DE9FF4F92461D4685B04FF0BB
:1013F0000041DDE9124BDDE914727F1E01EA4B501A
:10140000414940F0FF4940EA0108002122F0200054
:101410004928049102D04E2828D04CE03BA0012658
:1014200007C88DE80700A9690698641C88477F1ED5
:10143000014606D41DF8060018B121F020018142B2
:101440000BD0E96906988847032E34D0082E32D095
:101450006FF0010009B0BDE8F08F761C032E01D0BB
:10146000082EE0D1601CCAF80000DCE7A9690698E4
:10147000641C88477F1E2AD420F02000412826D1F2
:10148000A9690698641C88477F1E20D420F020009C
:101490004E281CD1A9690698641C88477F1E48F411
:1014A000002849F48009CAF8004001D4282806D051
:1014B000E969069888475FEACB7012D022E0A969F3
:1014C0000698641C88477F1E01D4002803DAE96966
:1014D00006988847BCE72928F1D1641CCAF8004067
:1014E000E9E71BF0240F07D028680499031D2B603F
:1014F0000068C0E9001805E02868021D2A6000683D
:10150000C0F800902046A5E70000F07F494E46490C
:101510004E4954590000000001491820ABBEFEE7B7
:10152000260002003A2800D2303820F02002412A5A
:1015300001D3A2F13700884201D34FF0FF3070474A
:1015400070470000FEE7000070470000014690F879
:101550002100022816D10868D1E90FC3026822F0E1
:101560000E020260026822F001020260012000FA0D
:1015700003F2CCF8042081F821000020002281F839
:1015800020207047042088630120002281F8202059
:101590007047000080B590F82110022923D102681D
:1015A000116821F00E0111602F211368C4F20201AD
:1015B0008A4240F20401C4F2020123F001031360E5
:1015C00015DD3023C4F202039A421CD04423C4F236
:1015D00002039A421AD05823C4F202039A421AD143
:1015E0004FF480331FE004218163012080BD082374
:1015F000C4F202039A420CD01C23C4F202039A42A2
:1016000009D110230FE04FF480730CE04FF48053A6
:1016100009E0012307E001F1680C4FF08073624597
:1016200008BF4FF480130B60416B4FF4807202844B
:1016300001B18847002080BD2DE9F04F82B00E68CF
:10164000002E00F0018140F2004E41F200424FF6C0
:10165000FF77C4F2010EC4F20102042300244FF00C
:10166000010CC1F210074FF00F0B4FF0000A4FF0C2
:101670000009904208BF0323009345E00123BB40CB
:101680002B4342F82C30D1F804B04FF6FF775FEAD5
:10169000CB32DEF8002054BF22EA080242EA0802F8
:1016A000CEF80020DEF804205FEA8B3354BF22EA34
:1016B000080242EA0802CEF804205FEACB23DEF8F3
:1016C000082054BF22EA080242EA08025FEA8B239C
:1016D00040F20C43CEF80820C4F201034FF0010C95
:1016E0001A68C1F210074FF00F0B54BF22EA08022C
:1016F00042EA08021A600E680AF1010A36FA0AF292
:1017000004F1040400F0A0800CFA0AF816EA080FAD
:10171000F1D04A68BA4211DC122A51D8DFE802F04F
:10172000340A424650505050505050505050505033
:1017300050494D00D1F80C9042E000BF4FF6FF73C6
:10174000C1F221039A420FDC0023C1F211039A4235
:101750001AD00023C1F212039A4215D00023C1F21D
:1017600021039A4210D02BE00023C1F222039A42B7
:101770000AD00023C1F231039A4205D00023C1F2FE
:1017800032039A421CD100BF8A6842B1012A14BFB9
:10179000C0F81480C0F810804FF0080910E04FF036
:1017A00004090DE0CA6802F1080909E04FF00009D8
:1017B00006E0CA6802F1040902E0CA6802F10C09F5
:1017C00022460346BAF1080F24BF203A04331D68AD
:1017D0000BFA02F6B54309FA02F22A431A60CA79F3
:1017E000D2067FF588AF41F21803C4F202031A68EB
:1017F0004FEA9A0C42F001021A601A6804F00C07D2
:1018000002F001020192019AAEF57E7252F82C307C
:1018100040F600060BFA07F5C4F20106B04223EACF
:1018200005050FD040F60043C4F2010398423FF48F
:1018300025AF41F20003C4F201039842009B08BFA8
:1018400002231CE700231AE702B0BDE8F08F000076
:10185000002A08BF090401617047000040F2E0203F
:10186000C2F200000068704740F2000040F2E02140
:10187000C2F20000C2F2000100780A681044086059
:101880007047000080B542F20000C4F20200016817
:1018900041F010010160032000F08AF80F2000F0F1
:1018A00005F800F027F8002080BD000070B540F278
:1018B0000006C2F2000640F208013278C2F20001CE
:1018C0004FF47A730968B3FBF2F20446B1FBF2F10C
:1018D000084600F04DFB0F2C4FF0010508D838B931
:1018E0004FF0FF3021460022002500F035F87460EB
:1018F000284670BD82B041F21800C4F202000168AF
:10190000022241F001010160016801F00101019131
:101910000199416841F080514160406800F0805079
:10192000009000980420C4F20100016862F31A617B
:10193000016002B070470000002848BF704700F007
:101940001F01012202FA01F14EF200124009CEF20B
:10195000000242F82010704710B54EF60C5CCEF233
:10196000000CDCF80030C3F3022E8EF00704042CC8
:1019700028BF0424BEF103034FF0FF3E0EFA04F427
:1019800038BF0023A14399400EFA03F39A4300F0B5
:101990000F03043B1143634409010C3300F160421F
:1019A000B0F1FF3FC8BF02F56443197010BD0000DD
:1019B0004EF60C51CEF200010A684FF6FF031A40B2
:1019C00060F30A2242F0806040F0FD7008607047CA
:1019D0002DE9F04381B0002800F0838042F2000836
:1019E000C4F202080446D8F800000D4600F00700D3
:1019F00088420CD2D8F8000020F007002843C8F82D
:101A00000000D8F8000000F00700A84269D1206863
:101A100041F204098107C4F2020917D5410705D52F
:101A2000D9F8001041F4E061C9F80010010705D5AC
:101A3000D9F8001041F46051C9F80010D9F800102D
:101A4000A26821F0F0011143C9F80010C00741D18C
:101A5000D8F8000000F00700A8420CD9D8F8000020
:101A600020F007002843C8F80000D8F8000000F074
:101A70000700A84235D12068410707D5D9F80010E2
:101A8000E26821F4E0611143C9F80010000708D5AD
:101A9000D9F80000216920F4605040EAC100C9F87B
:101AA0000000D9F8002002F00C00082841F20020C4
:101AB000C0F27A004BD145F6AE23C2F38341C0F6A3
:101AC0000003595CD20336D440F60010C0F23D004A
:101AD00048433CE06068012807D159F8041C890399
:101AE0000CD4012001B0BDE8F08359F8041C022891
:101AF00002D18901F5D501E08907F2D5D9F80010A6
:101B000021F003010843C9F80000FFF7A7FE0646CD
:101B100041F28837D9F80000616800F00C00B0EBA2
:101B2000810F95D0FFF79AFE801BB842F2D90320AF
:101B300001B0BDE8F083D9F8002045F69423C2F344
:101B40004042C0F600039A5C4843B0FBF2F0D9F87B
:101B5000001045F69622C1F30311C0F60002515C55
:101B600040F2080220FA01F140F20400C2F2000043
:101B70000068C2F200021160FFF798FE002001B079
:101B8000BDE8F08340F2080041F20401C2F2000017
:101B9000C4F202010068096845F6A622C1F30221D9
:101BA000C0F60002515CC8407047000040F20800D7
:101BB00041F20401C2F20000C4F2020100680968A7
:101BC00045F6A622C1F3C221C0F60002515CC8400E
:101BD000704700002DE9F04182B0002867D004462C
:101BE000007841F20006C007C4F2020624D07068F3
:101BF00000F00C0004281AD0706800F00C000828CF
:101C000002D17068C00312D46068002800F04181DE
:101C1000B0F5803F07D03168B0F5A02F40F06E815D
:101C200041F480203060306840F480306CE13068EE
:101C3000800301D56068D0B32078800718D570681C
:101C400010F00C0F07D0706800F00C00082856D177
:101C50007068C00353D43068800702D5206901281A
:101C600025D13068616920F0F80040EAC100306099
:101C7000207800071FD42078400731D4E56995B15A
:101C8000706800F00C00082840F08B80012D0ED009
:101C90007068216A00F480328A4208D1616A00F4D7
:101CA0007010884203D1002002B0BDE8F08101200D
:101CB00002B0BDE8F081A069B8B30020C4F24220B0
:101CC0000121C0F88014FFF7C9FD0546706A80073E
:101CD00000F18A80FFF7C2FD401B0228F6D920E1FF
:101CE000F069C00033D4F0694FF0010840F0805033
:101CF000F061F06900F080500090009829E02069C0
:101D0000002840F20000C4F2422000F09780012138
:101D10000160FFF7A3FD054630688007A1D4FFF7F7
:101D20009DFD401B0228F7D9FBE00020C4F24220B1
:101D30000021C0F88014FFF791FD0546706A800706
:101D400099D5FFF78BFD401B0228F7D9E9E04FF04A
:101D5000000847F20007C4F200073868C00510D435
:101D6000386840F480703860FFF778FD054600BFA2
:101D70003868C00505D4FFF771FD401B6428F7D90A
:101D8000CFE0E06800286BD0012806D0316A052832
:101D900040F0968041F004003062306A40F001006B
:101DA00094E00027C4F2422700203866FFF756FD72
:101DB000022D05460CD100BF3068800140F1B5808E
:101DC000FFF74CFD401B02284FF00300F4D96BE7EE
:101DD000306880017FF567AFFFF740FD401B0228A8
:101DE0004FF00300F4D95FE740F20800C2F20000B0
:101DF000006844F6D351C1F26201A0FB0101480A18
:101E0000019000BF00BF0198411E002801913FF4DE
:101E100032AF00BF0198411E002801913FF42BAF63
:101E200000BF0198411E002801913FF424AF00BF7C
:101E30000198411E00280191E4D11CE700210160B6
:101E4000FFF70CFD054600BF306880077FF510AF37
:101E5000FFF704FD401B02284FF00300F4D923E7ED
:101E6000306A20F001003062306A20F004003062F5
:101E7000FFF7F4FC054641F2883700BF306A80075F
:101E800033D5FFF7EBFC401BB8424FF00300F5D908
:101E90000AE7306820F480303060306820F4802019
:101EA0003060FFF7DBFC0546306880037FF5C4AE89
:101EB000FFF7D4FC401B64284FF00300F4D9F3E68D
:101EC00021F001003062306A20F004003062FFF738
:101ED000C5FC054641F28837306A800705D4FFF714
:101EE000BDFC401BB842F7D91BE0B8F1000F3FF42E
:101EF000C5AEF06920F08050F061BFE621F480307B
:101F00003060306820F480203060FFF7A7FC054681
:101F1000306880033FF590AEFFF7A0FC401B6428BB
:101F2000F6D9032002B0BDE8F081206AB0F5803F09
:101F300005D17168A26821F40031114371607168A4
:101F4000626A21F4741110430843706001203866FE
:101F5000FFF784FC044600BF306880013FF5A3AE64
:101F6000FFF77CFC001B02284FF00300F4D99BE62E
:101F7000411E0020B0EB116F1CBF012070474EF2D4
:101F80001002CEF2000251604EF62351CEF2000153
:101F9000F0230B70072190601160704770470000BC
:101FA00070470000B0B590F83C20012A04BF022021
:101FB000B0BD01F108053CCDD1E900CE23F47C533E
:101FC00022F470521A432EF4F0431A432CF4E043E7
:101FD0001A4324F4C0431A432A43C96922F48042B5
:101FE000036811435964002180F83C100846B0BDD5
:101FF00010B590F83C20012A4FF0020235D00123A1
:1020000080F83C3080F83D200268D2F804E0D2F835
:1020100008C00C682EF07003234340F2FF74C4F232
:102020000004A242536009DCB2F1804F12D040F2AA
:102030000043C4F200039A420CD010E042F6004381
:10204000C4F201039A4205D040F60003C4F2000333
:102050009A4204D149682CF0800319439160012110
:10206000002280F83D1080F83C20104610BD000092
:10207000002804BF0120704710B5044690F83D00C9
:1020800028B9002084F83C00204600F067F80220C0
:1020900084F83D00206840F2FF730268C4F2000338
:1020A00042F6004C9842C4F2010C14DCB0F1804FAF
:1020B00019D040F20041C4F20001884213D0984286
:1020C00017DCB0F1804F1CD040F20041C4F2000197
:1020D000884216D019E0604505D040F60001C4F2F0
:1020E00000018842EBD1A16822F070020A439842B5
:1020F000E7DD604505D040F60001C4F200018842EA
:1021000003D1216922F440720A43A36922F08001BD
:10211000D4F804E0E268194360450160C262C0F887
:1021200028E002D16169CCF8301001214161002022
:1021300084F8461084F83E1084F83F1084F840106C
:1021400084F8411084F8421084F8431084F8441055
:1021500084F8451084F83D1010BD000080B582B0B1
:10216000006840F20041C4F2000188421CBF02B086
:1021700080BD41F21C00C4F202000168002241F05F
:10218000020101600068002100F002000190019846
:102190001D20FFF7E1FB1D2002B0BDE88040FFF7E6
:1021A000CBBB000090F83D1001291CBF01207047F7
:1021B000022180F83D10006840F2FF72C168C4F24D
:1021C0000002904241F00101C16009DCB0F1804F92
:1021D00012D040F20041C4F2000188420CD012E05B
:1021E00042F60041C4F20101884205D040F60001E8
:1021F000C4F20001884206D1816801F00701062976
:1022000004BF00207047016841F001010160002017
:102210007047000080B590F83C20012A4FF0020280
:1022200000F0C080012380F83C3080F83D20D0F8D9
:1022300000C04FF67772DCF8083023EA0202CCF8CF
:1022400008200B683F2B1CDD5F2B20DD602B4FD05F
:10225000B3F5005F6CD0702B40F09E80D1E901E3B4
:10226000C968DCF8082043EA0E0322F47F4243EAFF
:1022700001211143CCF80810DCF8081041F0770177
:1022800088E01F2B28DC5BB3102B29D084E0402B87
:1022900061D0502B40F08080D1F804E0C968DCF8B0
:1022A0002030DCF8202022F00102CCF82020DCF8DD
:1022B000182022F0F00242EA011123F00A0242EA59
:1022C0000E02CCF81810CCF82020DCF8081041F0F1
:1022D000570121F020015DE0202B01D0302B5BD194
:1022E000DCF8081021F07001194341F0070151E0BA
:1022F000D1F804E0C968DCF8203023F01003CCF8F2
:102300002030DCF81830DCF8202023F4704322F071
:10231000A00243EA013142EA0E12CCF81810CCF8C0
:102320002020DCF8081041F0670121F0100131E0B5
:10233000D1E901E3C968DCF8082043EA0E0322F47E
:102340007F4243EA01211143CCF80810DCF8081061
:1023500041F480411EE0D1F804E0C968DCF8203087
:10236000DCF8202022F00102CCF82020DCF8182034
:1023700022F0F00242EA011123F00A0242EA0E02C0
:10238000CCF81810CCF82020DCF8081041F04701F8
:1023900021F03001CCF808100121002280F83D1016
:1023A00080F83C20104680BD002804BF0120704703
:1023B0002DE9F04F81B0044690F83D000D4628B954
:1023C000002084F83C00204600F094F8022084F8B5
:1023D0003D00206844F20702816840F2FF73914398
:1023E00081600268C4F2000342F6004C9842C4F2D5
:1023F000010C14DCB0F1804F19D040F20041C4F25E
:102400000001884213D0984217DCB0F1804F1CD0F5
:1024100040F20041C4F20001884216D019E0604544
:1024200005D040F60001C4F200018842EBD1A1685A
:1024300022F070020A439842E7DD604505D040F67D
:102440000001C4F20001884203D1216922F44072E4
:102450000A43A36922F08001D4F804E0E26819433A
:1024600060450160C262C0F828E002D16169CCF821
:1024700030104FF00109C0F814908268D0F818E0CD
:10248000D0F820C0D5E90038D5E9027B43EA020A3A
:10249000AB694FF6FF712EEA010E47EA03234FF6B0
:1024A000FC47BB43D5E907724BEA0E012E6919437D
:1024B00041EA072141EA061141EA02312CF02202E9
:1024C0006B6942EA080242EA0312C0F808A081617F
:1024D000026284F8469084F83E9084F83F9084F835
:1024E000429084F8439084F83D90002001B0BDE80C
:1024F000F08F000080B586B00021CDE9041100689E
:102500000391B0F1804F029101D006B080BD41F23D
:102510001800C4F20200426842F0010242604268C0
:1025200002F001020192019A026842F00402026084
:10253000006800F00400019001980320CDE9020139
:102540000120049040F60000C4F2010002A9FFF748
:1025500073F806B080BD000080B590F83E2090F87A
:102560003F3090F842E090F843C0042909D0B1B957
:10257000012A4FF0010208BFBEF1010F32D0104610
:1025800080BD012B4FF0010208BFBCF1010FF6D155
:10259000022180F83F1080F8431000681EE0012AF5
:1025A0004FF0010208BF012BE9D1BEF1010FE6D1C6
:1025B000BCF1010FE3D1022280F83E2080F83F20D9
:1025C00080F8422080F8432089B10068016A21F038
:1025D00001010162016A41F00101016210216FF005
:1025E000100208E0022180F83E1080F842100068D6
:1025F00001216FF00102036A1A400262026A11436C
:1026000001620168002241F001010160104680BDB5
:102610007047000010B5016804460869800744BF90
:10262000C8685FEA807038D40869400744BFC8684A
:102630005FEA40703DD40869000744BFC8685FEA9C
:10264000007043D40869C00644BFC8685FEAC06030
:1026500048D40869C0071CBFC8685FEAC0704ED183
:102660000869000644BFC8685FEA00604FD4086983
:10267000400644BFC8685FEA406050D408698006DD
:1026800046BFC8685FEA806010BD6FF02002204638
:102690000A61BDE81040FFF783BC6FF002000861DB
:1026A000012020778869800741D02046FFF7B0FFDE
:1026B00043E06FF00400086102202077886910F47D
:1026C000407F3ED02046FFF7A3FF40E06FF00800B8
:1026D000086104202077C86980073CD02046FFF7B6
:1026E00097FF3EE06FF01000086108202077C8696E
:1026F00010F4407F39D02046FFF78AFF3BE06FF0AF
:1027000001000861204600F067FA2168A8E76FF031
:10271000800008612046FFF741FC2168A7E76FF0C1
:1027200040000861204600F0B7FA2168A6E720467D
:1027300000F052F8204600F0E1F9216800202077EF
:1027400072E7204600F048F8204600F0D7F92168EB
:10275000002020776FE7204600F03EF8204600F08A
:10276000CDF92168002020776CE7204600F034F88E
:10277000204600F0C3F921680020207769E70000B7
:1027800080B586B0014640F60000C4F20100096839
:1027900000F5105291424FF00001CDE90411CDE94E
:1027A000021101D006B080BD41F21801C4F202014D
:1027B0000A6842F004020A60096801F0040101910C
:1027C00001994FF4C061029102210391059102A980
:1027D000FEF732FF06B080BD704700002DE9F041E2
:1027E00090F83C30012B04BF0220BDE8F0814FEA95
:1027F000B2020123032A80F83C3000F2E980DFE8CE
:1028000002F0023B77B303681A6A22F001021A62EF
:102810001A461E6AD3F804C052F8184F0D6824F007
:1028200073048F6844EA050E42F6004526F0020460
:10283000C4F20105AB4244EA07040CD1CD6824F090
:102840000C04D1E9056725F004052C432CF44075F0
:102850002E4346EA070CC3F804C0C3F818E04F68DB
:1028600009695F631C629F6947F008079F619F6960
:1028700027F004079F61A8E003681A6A22F010029B
:102880001A621A461C6AD3F804C052F8187F0E6800
:1028900027F4E6478D6847EA062E42F6004624F004
:1028A0002004C4F20106B34244EA05140FD1CD68F6
:1028B000D1E905876FF0400606EA05152CF440665D
:1028C00024F0C00446EA88062C4346EA870CC3F885
:1028D00004C0C3F818E04F6809699F631C629F69D0
:1028E00047F400679F619F6927F480679F616BE0F1
:1028F00003681A6A22F480721A621A461C6AD3F8B4
:1029000004C052F81C7F0E6827F073078D6847EAF1
:10291000060E42F6004624F40074C4F20106B342E7
:1029200044EA05240FD1CD68D1E905872D0240F294
:10293000FF46B5432CF4405624F4406446EA08169A
:102940002C4346EA071CC3F804C0C3F81CE04F68D8
:102950000969DF631C62DF6947F00807DF61DF692F
:1029600027F00407DF6130E003681A6A22F480521E
:102970001A621A461C6AD3F804C052F81C7F0E680B
:1029800027F4E6478D6847EA062E42F6004624F40F
:102990000054C4F20106B34244EA053404D14D693F
:1029A0002CF4804747EA851CC3F804C0C3F81CE038
:1029B0004F6809691F641C62DF6947F40067DF61C3
:1029C000DF6927F48067DF6109021368194311602A
:1029D000002180F83C100846BDE8F081002804BFC3
:1029E0000120704710B5044690F83D0028B900203A
:1029F00084F83C00204600F067F8022084F83D008F
:102A0000206840F2FF730268C4F2000342F6004CF3
:102A10009842C4F2010C14DCB0F1804F19D040F29E
:102A20000041C4F20001884213D0984217DCB0F193
:102A3000804F1CD040F20041C4F20001884216D001
:102A400019E0604505D040F60001C4F2000188425B
:102A5000EBD1A16822F070020A439842E7DD60459D
:102A600005D040F60001C4F20001884203D121697B
:102A700022F440720A43A36922F08001D4F804E0F2
:102A8000E268194360450160C262C0F828E002D1E3
:102A90006169CCF8301001214161002084F84610B2
:102AA00084F83E1084F83F1084F8401084F84110F8
:102AB00084F8421084F8431084F8441084F84510D8
:102AC00084F83D1010BD000081B0006842F600415E
:102AD000C4F20101884201D001B0704741F21800F0
:102AE000C4F20200016841F400610160006800F472
:102AF00000600090009801B070470000704700002F
:102B000041B1082909D0042914BF00F1410200F1A4
:102B10003F0204E000F13E0201E000F140021278C1
:102B2000012A1CBF01207047022241B1082909D0A7
:102B3000042914BF80F8412080F83F2004E080F889
:102B40003E2001E080F84020006801F01F010122D2
:102B5000036A8A4023EA02010162036A42F64441A1
:102B6000C4F201011A43A1F14403984202620FD05A
:102B700040F2FF71C4F20001884213DCB0F1804FD3
:102B80001CD040F20041C4F20001884216D01CE083
:102B90000A6842F400420A6040F2FF71C4F2000188
:102BA0008842EBDD42F60041C4F20101884205D0C3
:102BB00040F60001C4F20001884206D1816801F0AC
:102BC0000701062904BF00207047016841F0010198
:102BD000016000207047000070B582B0006840F2CC
:102BE0000041C4F2000140F270058842C2F20005C3
:102BF0000ED140F21820C2F20000017840F2881095
:102C0000C2F20000006852291CD100214162A9646F
:102C1000AE88AC68012E26D120464FF07E5102F0DE
:102C20002FFB00B305F10C064ECE05F138000096DF
:102C300000F050FD696B00F051FB02B0BDE8704040
:102C400000F00EBC416AB5F84A20891AA5F84C106C
:102C5000406A09B2A5F84A00686C08446864AE8806
:102C6000AC68012ED8D0012EE7D120464FF080412C
:102C700002F006FB0028E0D005F10C064ECE05F16F
:102C80003800009600F09AFC696B00F085FB02B0FA
:102C9000BDE8704000F0E4BB7047000070470000E2
:102CA00070470000F0B581B0026804461068D16832
:102CB000556900F02F03202B01F0200306D12BB122
:102CC000204601B0BDE8F04000F016BC5FEA007C91
:102CD00007D005F0010E11F4907F8EF001052FD181
:102CE00075B3236B0840C10618D5012B16D10020FF
:102CF000009010680090506800900098506940065D
:102D000000F18880A08DE18DE38D002B1CBF401A5F
:102D10005FEA004140F0CC8001B0F0BD010600F157
:102D2000A9804006F8D5D068202120F04000D0606E
:102D3000204684F83D1001B0BDE8F04000F0C6BA6E
:102D4000C60718BF11F4807603D0266C46F0010642
:102D5000266400F00407012686EA97072F4303D173
:102D6000276C47F00207276400F0020786EA57063F
:102D7000354303D1256C45F00405256453EA0E0361
:102D800018BF0123BCF1000F04D51BB1236C43F025
:102D900008032364236C002BBED00840800603D5B3
:102DA000204600F0A9FB22685069216C00F0400029
:102DB00001F00801401874D0D06820F49070D06001
:102DC000506920F001005061206B012803D1D068C8
:102DD00020F01000D060202084F83E000020206306
:102DE0005069400657D5506920F040005061A06BF3
:102DF000002850D043F2ED41C0F600014163FEF7D8
:102E0000C9FB00283FF488AFA06B416B01B0BDE85F
:102E1000F0400847A06B01684B689EB2002E3FF45B
:102E20007BAFA18D8E42BFF477AFE3858369202B02
:102E300017D0D16821F48071D160516921F001016E
:102E40005161516921F040015161202184F83E1007
:102E500000212163D16821F01001D160FEF776FBDB
:102E6000A18DE08D081A81B2204601B0BDE8F04086
:102E7000FFF714BF94F83D0021287FF44DAFA06800
:102E8000B0F5805F01D1206950B3206A411C2162F6
:102E9000007850602BE0204601B0BDE8F040FFF71D
:102EA000FFBE2046FFF7FCFE0020206401B0F0BD0D
:102EB000D16821F49071D160516921F00101516113
:102EC000202184F83E1000212163D16821F01003F5
:102ED00081B22046D36001B0BDE8F040FFF7DEBE0E
:102EE000206A30F8021B6FF35F2151602062E08C92
:102EF00001380104E0847FF40FAFD06820F0800037
:102F0000D060D06840F04000D06001B0F0BD00005B
:102F1000002804BF0120704710B5044690F83D001A
:102F200028B9002084F83C00204600F05FF82420F7
:102F300084F83D002068D4E90212C36823F40053EA
:102F4000C360036923F440531A430261D4E90423A4
:102F50001143C268194341F20C639A431143C160A3
:102F60004169A26921F44071114343F60002C4F2A1
:102F700001029042416102D0FEF704FE01E0FEF73B
:102F800015FE6268192148439100B0FBF1F048F248
:102F90001F51C5F2EB11A0FB01235A096FF0630327
:102FA00002FB0300322303EB0010A0FB0101F0231E
:102FB00003EA5113206803EB0212C1F343111144D9
:102FC0008160016921F490410161416921F02A0188
:102FD0004161C16841F40051C1600020202120649A
:102FE00084F83D1084F83E1010BD000070B586B026
:102FF000002640F600440596CDE90366C4F20104BC
:10300000006804F530518842029601D006B070BDC8
:1030100041F21800C4F20200016802AD41F480419F
:103020000160016801F4804101910199016841F05A
:10303000080101600068294600F00800019001982D
:103040004020029002200390032005902046FEF7C6
:10305000F3FA8020CDE90206204629460496FEF7C1
:10306000EBFA0420C4F201000168002241F0E061A3
:1030700041F00401016025200021FEF76DFC2520B0
:10308000FEF75AFC06B070BD034690F83E002028BB
:103090000AD100294FF0010018BF002A00D1704763
:1030A00093F83C00012801D10220704700201863EA
:1030B000996222219A85DA85186483F83E1019688E
:1030C00083F83C00CA6842F48072CA604A6942F0E0
:1030D00001024A61CA6842F02002CA6070470000DB
:1030E000006843F60001C4F20101884218BF70472E
:1030F00040F27000C2F2000001783B2904D10021A7
:1031000041700121418007E04278531C437040F236
:103110007C20C2F20000815440F2C800C2F20000DC
:1031200040F270013430C2F200010122FFF7ACBF5F
:103130002DE9F04381B0044690F83D0020280DD1E0
:103140000F4600294FF0010000F094801646002A37
:1031500000F0908094F83C00012803D1022001B0D7
:10316000BDE8F083012084F83C004FF000092120E5
:103170001D46C4F8409084F83D00FEF76FFBA6841E
:10318000E684A1688046B1F5805F07D120690028F8
:103190001CBF38464F463E46074600E0002684F8EE
:1031A0003C90E28C2068016802B36A1C3FD0002D7D
:1031B00070D000BF090608D4FEF750FBA0EB080151
:1031C0002068A9426DD80168F4E717B117F8011B10
:1031D00004E036F8021B00276FF35F214160E18CA9
:1031E0000139E184E28C0168002AE3D149063DD42B
:1031F000002D56D0691C2FD10168490636D40168CC
:1032000049065CBF01685FEA41612FD40168490645
:10321000F2D52BE036F8021B00276FF35F214160E7
:10322000E18C0139E184E28C0168002ADED00906D4
:103230005FBF01685FEA016101685FEA016105D46F
:103240000168090602D40168F1E700BF002FE1D050
:1032500017F8011BE3E700BFFEF700FBA0EB080136
:103260002068A9421DD800684006F5D5202084F8C2
:103270003D00002001B0BDE8F08336F8021B0027B6
:103280006FF35F214160E18C0139E184E28C0168D8
:10329000002AABD0090604D5002FEED017F8011B89
:1032A000F0E7C16821F4D071C160416921F00101EA
:1032B0004161202084F83D0084F83E00002084F81D
:1032C0003C00032001B0BDE8F0830000704700001F
:1032D000FEE70000FEE70000FEE70000B0B50C4688
:1032E00040F6004508460021C4F2010501F0E4FF64
:1032F000F0B928464FF480410122FEF7A9FA28468A
:103300004FF400410022FEF7A3FA42F62C45C4F226
:103310000105286802F034F9214602F0ADF90021D8
:10332000C4F2C82101F0E2FF02F0F2F82861B0BD5A
:103330002046002101F0B9FFF8B928464FF480413A
:103340000022FEF785FA28464FF400410122FEF7DD
:103350007FFA42F62C45C4F20105286802F010F904
:103360000146204602F088F90021CCF2C82101F084
:10337000BDFF02F0CDF82861B0BD28464FF4804172
:103380000122FEF765FA28464FF400410122BDE80C
:10339000B040FEF75DBA0000B0B50C4640F60045FF
:1033A00008460021C4F2010501F086FFF8B928465D
:1033B0004FF480410122FEF74BFA28464FF40041BA
:1033C0000022FEF745FA40F24010C2F20000056804
:1033D000E86A02F0D5F8214602F04EF90021C4F265
:1033E000C82101F083FF02F093F8E863B0BD2046E6
:1033F000002101F05AFF00BB28464FF48041002213
:10340000FEF726FA28464FF400410122FEF720FA83
:1034100040F24010C2F200000568E86A02F0B0F81D
:103420000146204602F028F90021CCF2C82101F023
:103430005DFF02F06DF8E863B0BD28464FF48041AF
:103440000122FEF705FA28464FF400410122BDE8AB
:10345000B040FEF7FDB90000704700007047000063
:1034600070B540F27005C2F20005AE88AC68012E5E
:1034700008D120464FF07E5101F002FF10B105F156
:103480002C000BE0012E1FD120464FF0804101F0AF
:10349000F7FE002808BF70BD05F13000006801F09C
:1034A00061FE40F2C804C2F2000402460B4607A1C6
:1034B0002046FCF79BFE04F13400214632221423FF
:1034C000BDE87040FFF734BE70BD00BF31317C25D0
:1034D00066200D0A00000000FEF7C6B97047000024
:1034E00040F2D010C2F20000FFF794B8406A002109
:1034F000C185C184FFF7D4BB81B090F83E1022296A
:1035000020D18368B3F5805F08D10169002941D0DB
:1035100000F128010A6803685B680AE0014651F877
:10352000282F13B90369002BF5D003685B6803F0FB
:103530007F0313700A6801320A60C18D01390A04E1
:10354000C18501D001B070470168CA6822F020022D
:10355000CA60CA6822F48072CA604A6922F0010215
:103560004A61202280F83E20026B012A1BD10022F2
:103570000263CB6823F01003CB600B68DB0605D534
:1035800000920A680092496800910099818D01B00B
:10359000FFF784BB0168826A49686FF35F2122F8F4
:1035A000021B8262C9E701B0FFF79ABD40F2FC003E
:1035B000C2F20000FFF776BBFEE700002DE9F04FF6
:1035C00083B040F27009C2F200090C46D9F84410E9
:1035D00005460846CDE9012301F0BAFF0021C4F2F7
:1035E000B43102F049F80021C4F2286101F07EFEF6
:1035F0000146C9F83000204602F00AF9C9F81C005B
:103600002860D9F81CA00646504601F0ABFD47F6ED
:10361000E12B41F27B42C3F6947BC4F2AE725B466F
:1036200001F082FB074668680C4601F09BFD0246EC
:103630000B463846214601F0EBF801F0B7F8686018
:10364000D9F820108046504602F0E2F801F08AFDD9
:1036500041F27B42C4F2AE725B4601F095F901F093
:10366000A5F801990446A860304602F005F80299D1
:103670000546404602F000F80146284601F09EFD4E
:103680000C990546204601F0F7FF0146284601F057
:1036900095FD0025C4F2BE2529460646C9F834002A
:1036A00001F0FCFD30B1C9F83450C9F820A003B0D6
:1036B000BDE8F08F0025CCF2BE253046294601F04A
:1036C000F4FD002808BFC9F83450C9F820A003B0A1
:1036D000BDE8F08F2DE9F04F83B040F27009C2F2DF
:1036E00000090D46B9F94C1004460846CDE90123FE
:1036F00001F02EFF0021C4F2702101F0BDFF01F0A6
:1037000031FD47F6E1224EF24713CAF61462C4F2C5
:103710006A0301F039F901F049F80646C9F82C00AE
:103720002846314602F074F80546C9F824003046B0
:1037300001F0D2FE2560D9F824A0C9F85000504607
:1037400001F010FD47F6E12B41F27B42C3F6947B7A
:10375000C4F2AE725B4601F0E7FA074660680E46B7
:1037600001F000FD02460B463846314601F050F8A4
:1037700001F01CF86060D9F828108046504602F02D
:1037800047F801F0EFFC41F27B42C4F2AE725B46B7
:1037900001F0FAF801F00AF801990646A0602846FF
:1037A00001F06AFF02990446404601F065FF0146B8
:1037B000204601F003FD0C990446304601F05CFF01
:1037C0000146204601F0FAFC0024C4F2BE24214642
:1037D0000546C9F8340001F061FD30B1C9F8344044
:1037E000C9F828A003B0BDE8F08F0024CCF2BE24B5
:1037F0002846214601F059FD002808BFC9F8344089
:10380000C9F828A003B0BDE8F08F000096B0FEF71D
:1038100039F800240120CDE90744CDE90544CDE97C
:10382000034406901020022507904FF46010029583
:10383000CDE909540B9002A81094CDE90E44CDE9CE
:103840000C44FEF7C7F920B1EFF3108072B600BF49
:10385000FEE70F20CDE90C054FF480600E94CDE912
:103860000F040CA80221FEF7B3F820B1EFF310808B
:1038700072B600BFFEE741F21800C4F20200016810
:1038800040F6004841F0040101600168C4F20108FB
:1038900001F00401029102990168A8F5806541F0E8
:1038A000080101600068082100F0080002900298F9
:1038B0002846002208260027FDF7CAFF40464FF49D
:1038C000404100224FF44049FDF7C2FF029602AE8C
:1038D00001244FF0020A28463146CDE90344CDF8D1
:1038E00014A0FDF7A9FE40463146CDE90294CDE98A
:1038F000047AFDF7A1FE40F2C805C2F2000508F502
:103900003051284640F8341F4FF4E1310C22C0E911
:103910000117C0E90377C0E90527C761FFF7F8FA87
:1039200018B1EFF3108072B6FEE740F2401008F5D0
:103930000051C2F2000040F2E733CDE9147712974C
:10394000CDE91077CDE90E77CDE90C77CDE9087791
:10395000CDE90677CDE90477CDE902773F2280E80B
:103960008600C0E90337C0E90577FFF737F820B1D3
:10397000EFF3108072B600BFFEE740F24010002661
:10398000C2F2000014A9CDE91466FEF731FB20B1A4
:10399000EFF3108072B600BFFEE76020CDE90C06A1
:1039A00040F24010C2F200000CA90422CDE90E66DC
:1039B000CDE910661296FEF711FF20B1EFF31080EB
:1039C00072B600BFFEE740F24010C2F200000CA940
:1039D0000822FEF703FF20B1EFF3108072B600BF9C
:1039E000FEE700264FF400500696CDE90466CDE9C7
:1039F0000266079040F24010C2F2000002A9099648
:103A0000FEF7D0FA18B1EFF3108072B6FEE740F27D
:103A10004010C2F20000FEF7B3FE40F28810C2F27E
:103A200000004FF08041C0E900160321CDE90216E5
:103A300001214FF6FF72CDE90416CDE90666CDE906
:103A4000081602A9CDE90C66C0E90262066186612A
:103A50000A96FEF7A9FC20B1EFF3108072B600BF02
:103A6000FEE740F288100026C2F200000CA9CDE962
:103A70000C66FEF7BDFA20B1EFF3108072B600BFFE
:103A8000FEE740F2D010A8F58431C2F2000040F207
:103A9000CF73CDE90466CDE90266CDE90C6640F24C
:103AA0007F2280E84600C0E903368661FEF7E0FA2F
:103AB00018B1EFF3108072B6FEE74FF48050029019
:103AC00040F2D010C2F2000002A9FEF7A3FB18B129
:103AD000EFF3108072B6FEE70020CDE90C0040F253
:103AE000D010C2F200000CA9FEF782FA18B1EFF371
:103AF000108072B6FEE740F28816C2F20006304629
:103B00003C21FEF729FD40F2D010C2F20000FEF782
:103B100049FB40F24010C2F200000821FEF7F0FF1E
:103B200005F1340040F27005C2F200052946012279
:103B3000FFF7AAFA6888002800F0AD8040F2182745
:103B4000C2F2000738466421FCF7CEFB40F27C212C
:103B5000C2F200013846FCF7A3FB3878433810283E
:103B600000F29080DFE800F0098E8E8E8E8E8E8EB1
:103B70000C8E8E8E8E8E8E4660000120A88081E095
:103B800040F21820C2F2000043A1FCF777FB28B1F5
:103B90000A3000F063FD00F009FEE86040F21820F2
:103BA000C2F200003FA1FCF769FB28B1033000F02E
:103BB00055FD00F0FBFD286140F21820C2F2000024
:103BC00039A1FCF75BFB28B1033000F047FD00F0A2
:103BD000EDFD686140F21820C2F2000033A1FCF74D
:103BE0004DFB00284ED0033000F038FD00F0DEFD24
:103BF000A86147E030680027C5E903776F61AF61CE
:103C00004762AE684FF07E5130466F64A5F8487049
:103C100001F036FBB8B105F1380000210022002385
:103C20000097FFF757FD1DE040F21820C2F2000098
:103C30001FA1FCF723FB28B30B3000F00FFD00F0B1
:103C4000B5FDA8601EE030464FF0804101F018FB42
:103C500040B1002705F13800002100220023009721
:103C6000FFF7ACFC002440464FF4804100226C6317
:103C7000FDF7EEFD40464FF400410022FDF7E8FD60
:103C8000AC60AC800020688040F27C20C2F2000072
:103C90006421FCF729FBFEE74B736574706F696E56
:103CA000743D00004B703D004B693D004B643D008E
:103CB00053656C6563746D6F64653D005FEA400C2D
:103CC00008BF91F0000F4FEA8C234FEAC12243EA6C
:103CD00051514FEA1C5018BF00F5F0404FEA300038
:103CE00018BF41F000415FEA6C5C00F02980BCF134
:103CF000FF3F08BF40F080407047130C06BF12041E
:103D00004FF0100C4FF0000C130E04BF12020CF118
:103D1000080C130F04BF12010CF1040C930F04BF25
:103D200092000CF1020CD30F04BF52000CF1010CF5
:103D300011464FF00002A0F11F00A0EB0C007047ED
:103D400011F0004F08BF704731F000413FF4D5AF8C
:103D50000B0C06BF09044FF0100C4FF0000C0B0EBB
:103D600004BF09020CF1080C0B0F04BF09010CF190
:103D7000040C8B0F04BF89000CF1020CCB0F04BFA5
:103D800049000CF1010CCCF1200322FA03F341EAC3
:103D9000030102FA0CF2A0EB0C0000F101007047E5
:103DA00023F07F4720F07F4C80EA030000F00040C2
:103DB000ACEB070303F57C5303F1FF032DE98049C6
:103DC00009B44FEA144324EA03484FEA154B25EAA5
:103DD0000B4E0FF2042606EB13273E7803FB066713
:103DE000C7F5000707FB06F64FEAD64606F10206BE
:103DF0004FEA543707FB066CCCF1005C4FEA1C47D6
:103E00002CEA074C0CFB06F507FB06F404EB154601
:103E10004FEA961649085FEA320234BF00204FF09D
:103E200000404FEAD13706FB07FC4FEA1C4C0CFB65
:103E30000BF7D21B03FB0CF761EB07010CFB0EF732
:103E4000B0EB074072EB17420CFB08F734BFA2EB54
:103E50000742B2EB074261EB17414FEA0C444FEACD
:103E6000910706FB07FC4FEA1C4C0CFB0BF7B0EB71
:103E7000C74072EB573203FB0CF734BFA2EBC742CB
:103E8000B2EBC74261EB57310CFB0EF7B0EBC7004A
:103E900072EB57720CFB08F734BFA2EBC702B2EB10
:103EA000C70261EB57714FEA816141EA92114FEA13
:103EB000826242EA90124FEA806004EBCC04039FD6
:103EC0004FEAD13706FB07FC4FEA1C4C0CFB0BF703
:103ED000D21B03FB0CF761EB07010CFB0EF7B0EBF9
:103EE000074072EB17420CFB08F734BFA2EB074206
:103EF000B2EB074261EB17414FEA8C5504EB9C246F
:103F00004FEA910706FB07FC4FEA1C4C0CFB0BF732
:103F1000B0EBC74072EB573203FB0CF734BFA2EB98
:103F2000C742B2EBC74261EB57310CFB0EF7B0EB67
:103F3000C70072EB57720CFB08F734BFA2EBC70245
:103F4000B2EBC70261EB57714FEA816141EA92110E
:103F50004FEA826242EA90124FEA806015EB4C25EC
:103F600044F100044FEAD13706FB07FC4FEA1C4C32
:103F70000CFB0BF7D21B03FB0CF761EB07010CFBEF
:103F80000EF7B0EB074072EB17420CFB08F734BF9B
:103F9000A2EB0742B2EB074261EB17414FEA8131D6
:103FA00041EA92414FEA823242EA90424FEA80303F
:103FB0004FEA0C7615EB1C1544F1000448EA034364
:103FC0004EEA0B484FF0000EB2EB080C71EB030702
:103FD00024BF624639464EEB0E0E4FF0000B001820
:103FE000524149414BEB0B0BB2EB080C71EB030751
:103FF0007BF1000B24BF624639464EEB0E0E4FF0AC
:10400000000B0018524149414BEB0B0BB2EB080C73
:1040100071EB03077BF1000B24BF624639464EEB80
:104020000E0E51EA020718BF46F0010616EB0E7697
:1040300055F1000254F1000103D5BDE88901BDE846
:104040000088BDE88901BDE80048B619524141EB3E
:104050000101A3F10103704780807F7E7D7C7B7A24
:104060007978777676757473727171706F6E6E6D24
:104070006C6C6B6A6A6968686766666564646363CA
:1040800062616160605F5F5E5E5D5D5C5C5B5B5A50
:104090005A595958585757565655555554545353BD
:1040A00052525251515050504F4F4F4E4E4D4D4D18
:1040B0004C4C4C4B4B4B4A4A4A4949494848484763
:1040C00047474746464645454544444444434343A1
:1040D000434242424241414110B546EA06464FEA58
:1040E000164646EA42564FEAD22242EA41524FEA87
:1040F000D121A3F57053A3F1010300F02FF820F0B4
:10410000004000F0004700F1020CBCF5006F01EB2D
:104110000050114640EA070000D210BDBAF1000F6E
:104120000AD01CB503B44FF004004FF004014FF067
:1041300000000FBCBDE810404FF00001BBF1010FC3
:10414000B9BF04484FF0FF310348002140EA07009F
:1041500010BD00BFFFFFEF7F0000F07F9C46002BEB
:1041600030D477002BD04FEA37071CB503B44FF09B
:1041700010004FF01001BAF1000F06D0BCF1000F93
:10418000DCBF40F0080040F008014FF000000FBC19
:10419000BDE810400BF1010BBBF1010F08BF5FEA56
:1041A000170722BF12F1010211F101014FF0004186
:1041B00043F1000300F0004043EA00007047F9D3E8
:1041C0005708D0E746EA06464FEA164613F1400F75
:1041D0001FDD13F1200FDFBF16430A4600212033F5
:1041E0005B42BED0C3F1200746EA06464FEA1646B8
:1041F00002FA07F746EA070622FA03F2C3F120079C
:1042000001FA07F742EA070221FA03F14FF000032F
:10421000A7E746EA020646EA06464FEA164646EA97
:104220000106BCBF46EA0646360C4FF000034FF0CD
:1042300000024FF0000194E72DE9804C70B49A46DB
:10424000934691E8380007C831EA400C48BF34EA89
:10425000430C03D5FFF7A4FDFFF780FFF0BCBDE8DA
:10426000008C2DE9804C70B49A46934691E8380052
:1042700007C831EA400C48BF34EA430C03D5FFF7C6
:104280008FFDFFF729FFF0BCBDE8008C2DE9804CC5
:1042900070B49A46934691E8380007C810F0804FF2
:1042A00008BF13F0804F03D100F01AF8FFF756FF54
:1042B000F0BCBDE8008C2DE9804C70B49A46934662
:1042C00091E8380007C810F0804F08BF13F0804F06
:1042D00003D100F005F8FFF7FFFEF0BCBDE8008C4D
:1042E00020F07F4723F07F4C80EA030000F000407D
:1042F00007EB0C03A3F57C53A3F1FE0392F0000F30
:1043000000F0B38095F0000F00F077802DE90149AF
:104310004FEA114021EA00484FEA144624EA0647D2
:1043200000FB06FC08FB06F607FB08F818EB06483E
:104330004CEB164C00FB07F718EB07484CEB17400B
:104340004FEA124B22EA0B4E4FEA154625EA064782
:104350000BFB06FC0EFB06F607FB0EFE1EEB064EE5
:104360004CEB164C0BFB07F71EEB074E4CEB174BB9
:1043700018EB0B0840F1000018EB0E0B58EB00088F
:1043800040F100008F1A4FF000014FF000063CBFD3
:10439000C943661B14BFB5EB040C00213CBFC943E5
:1043A000F61B4FEA174427EA04454FEA1C472CEA5C
:1043B000074C04FB076205FB07F70CFB05F616EB41
:1043C000074642EB174204FB0CFC16EB0C4642EB93
:1043D0001C421BEB060658EB020241414EEA8E0ED0
:1043E00046EA9E0601D5BDE80189B619524141EB66
:1043F0000101A3F10103BDE801894FEA144524EA54
:1044000005464FEA114721EA074C05FB07F406FB76
:1044100007F70CFB06F111EB074144EB174405FBD2
:104420000CFC11EB0C4144EB1C444FEA124722EA0E
:10443000074C05FB07F206FB07F70CFB06F616EB2D
:10444000074642EB174205FB0CFC16EB0C4642EB11
:104450001C456A1854F1000148BF7047B619524113
:1044600041EB0101A3F10103704795F0000F37D034
:104470004FEA114221EA02464FEA144724EA074C68
:1044800002FB07F106FB07F70CFB06F414EB0744ED
:1044900041EB174102FB0CFC14EB0C4441EB1C41BB
:1044A0004FEA154725EA074C02FB07F506FB07F71D
:1044B0000CFB06F616EB074645EB174502FB0CFC1A
:1044C00016EB0C4645EB1C42121951F1000148BF96
:1044D0007047B619524141EB0101A3F10103704746
:1044E0004FEA144524EA05464FEA114721EA074CF2
:1044F00005FB07F106FB07F70CFB06F212EB074280
:1045000041EB174105FB0CFC12EB0C4251EB1C413B
:104510004FF0000648BF7047921841EB0101A3F12C
:1045200001037047490050EAC12018BF04204A0D1A
:1045300018BF40F0010040F2FF72B2EB515F08BFBC
:1045400040F00200012808BF0520704740F2013208
:1045500000204FF0E04101F007BA0000024A0020BD
:10456000110701F001BA000001FDFFFF10B504467C
:10457000D1E9000100F002F8206010BDF8B5044652
:104580000D466A4600F080F800987E3000900028C2
:104590001EDC002213462046294600F04DFB17D0B2
:1045A000002140F608004FF000000646204629464C
:1045B00000F0FCF8044640F6080006EA00014FF05F
:1045C000000034F0004004BF0220FBF7BCFE29E0ED
:1045D0000098FF2828DB002108464FF0000000F477
:1045E0004006002213462046294600F09BFC8CBF63
:1045F000002501250220FBF7A6FE4FF0FF4446B13F
:10460000002D0CBF4FF400004FF48000B04218BFE3
:10461000084C042108464FF00000002D04BF84F030
:104620000040F8BD2046F8BD20462946BDE8F840C8
:1046300000F0BCB8FFFF7F7F10B504460A46D4E9FE
:104640000003194600F04CF8C4E9000110BD3038F1
:104650000A2801D2012070470020704730B583B08E
:104660000446FBF76BFE05460020CDE9000002463C
:10467000012321466846FCF7BBF82846FBF763FE9A
:10468000DDE9000103B030BD10B514460022226000
:10469000114A21F000439342A8BF10BD53EA000223
:1046A00008BF10BDB3F5801FA8BF226807DA362205
:1046B00001F05AF96FF0350221F000432260DFF873
:1046C0001CC06FF31E510CEB23531A4441F0FF51F1
:1046D00041F00051226010BD0000F07F02FCFFFF9E
:1046E0002DE9F04106460C4640F2FF75174635EAC3
:1046F00014502BD000221346304600F09DFA25D0EE
:104700003A463046214601F02FF906460C4635EA76
:10471000145010D000221346304600F08DFA15D107
:104720000220FBF710FEFFF719FF0A46214662F34D
:104730001E01BDE8F0810220FBF705FEFFF706FF32
:104740000A46214662F31E01BDE8F081304621464B
:10475000BDE8F08110B500290AD00878002807D0FC
:1047600005487844FCF75AFC002801D0002010BD11
:104770000248784410BD00008E130000861300002C
:1047800010B500290AD00878002807D005487844D9
:10479000FCF744FC002801D0002010BD02487844FA
:1047A00010BD00007E1300007613000021F00042CF
:1047B00001F00043A2F16052B2F5801F28BFD2F190
:1047C0007F6C0BD95FEA001C43EAC20242EB5070D7
:1047D00018BF704728BF20F001007047B2F5801F56
:1047E000BCBF184670474FEA410C1CF5001F02D2AF
:1047F000084601F008B870B500F040FB00000089E1
:10480000FFF7F6BF4FF00040A0F5800070470000B2
:1048100010B591EA030F48BF83F0004300F1C08355
:10482000841A71EB030C05D2121943EB0C03001B25
:1048300061EB0C014FEA1154A4EB135CDFF81CE1AF
:104840001EEA430F18BF9EEA445F73D021EA045169
:1048500023EA0E0343F48013DCF1200E32D322FA54
:104860000CFE10EB0E0023FA0CFE41EB0E01CCF116
:10487000200E03FA0EFE10EB0E00CCF1200E51F1CB
:104880000001B1F5801F32D201EB045112FA0EF291
:10489000BDE8104058BF7047401C38BF5FEA420275
:1048A00018BF7047002814BF20F0010041F100013B
:1048B0004FEA410313F5001F38BF7047A1F1C04113
:1048C00000F02ABB012A43EB0302ACF1200CDCF11F
:1048D0001F0E32BF4FF0000E23FA0CF310EB030053
:1048E00041EB0451B4EB115FD0D0A1EB045101F5C1
:1048F0008011490801EB04515FEA30000ED350F1FA
:10490000000038BF12FA0EFE08D1BDE81040C9E71A
:10491000401C38BF5FEA4202CAD1C3E7BDE810407D
:104920004FEA410313F5001F38BF7047A1F1C041A2
:1049300000F0F2BA9EEA445F08D011EA5E0FBDE8CB
:10494000104004BF01F0004100207047BDE8104056
:1049500070B500F093FA00BF64FBBE3E0000E0FFBC
:1049600002494FF0000000F0CDBF00BF0000F87F0B
:10497000491058BFC1F140415B1058BFC3F14043DB
:104980008B42EFF3008070472DE9C04130B4DFF86F
:10499000A0C23CEA111418BF3CEA131400F0EC80EA
:1049A0001CEA111481EA030544EAD57418BF1CEA15
:1049B000131500F0C780A4EB050404F17F7404F51F
:1049C00000344FF0004545EAC12145EAC32341EADE
:1049D000505143EA52534FEAC0204FEAC222994253
:1049E00008BF904200F09C804FEA13650FF240161A
:1049F000765D4FEA134506FB05F7C7F1807706FBA6
:104A000007F74FEAD737A7FB03687642A7FB06CE26
:104A1000C8F5803838BFA8F1010807FB08E6A6FBF7
:104A2000028C4FF0000EE6FB03CEDCF1000CCEF161
:104A3000004E38BFAEF1010EA6FB0C584FF0000738
:104A4000E6FB0E87A1FB08C6A0FB07CE16EB0E0601
:104A50004FF0000545F10005E1FB076515F1E04E5B
:104A60007EBFA4F580345FEA46066D4116F18007EB
:104A700045F100054FEA172747EA05674FEA152574
:104A80004FEA0666A6F1DE46B6F1805F1FD93846CA
:104A900005EBC47124F0010C01EB0C11BCF1FE6FAD
:104AA00002D8F0BCBDE8008124425CBF01F5801E45
:104AB0009EEAC47F02D4F0BCBDE80081244238D411
:104AC000A1F1C041F0BCBDE8004100F025BA4FEAB9
:104AD000D02040EA41504FEAD1214FEAD22242EAA7
:104AE00043524FEAD323A7FB028607FB036605FB6D
:104AF00002661EEA0E0F58BFA6EB0056B6EB005634
:104B00004FEA520E4EEAC37E18EB0E0E56EB530ED2
:104B1000BDD518EB02085E417F1C55F10005B6E7D4
:104B20004FF480154FF000074FF000064FF00008DB
:104B3000ADE701F1C04101F000414FF00000F0BCD1
:104B4000BDE800810CEA131511EA0C1F00D00CE03F
:104B500013EA0C1F00F025804FF0000081EA0301EA
:104B600001F00041F0BCBDE80081F0BCBDE80041AF
:104B700081EA030100F0D0B9F0BCBDE8004170B596
:104B800000F07CF9097EFC3E00F007B84FF0000011
:104B900081EA030101F00041704781EA030100F05E
:104BA000BBB9F0BCBDE8004122494FF0000070479E
:104BB000FFFDFBF9F7F5F4F2F0EEEDEBE9E8E6E4E2
:104BC000E3E1E0DEDDDBDAD8D7D5D4D3D1D0CFCD69
:104BD000CCCBCAC8C7C6C5C4C2C1C0BFBEBDBCBBA2
:104BE000BAB9B8B7B6B5B4B3B2B1B0AFAEADACAB9D
:104BF000AAA9A8A8A7A6A5A4A3A3A2A1A09F9F9E77
:104C00009D9C9C9B9A999998979796959594939328
:104C1000929191908F8F8E8E8D8C8C8B8B8A8989BF
:104C20008888878786858584848383828281818042
:104C30000000FF070000F87F51EA030C17D41CF5B1
:104C4000801F58BFBCF5801F00F10680994218BF35
:104C5000704708BF9042704707D711F5801F58BFB3
:104C600013F5801F19D499427047894270471CF58B
:104C7000801F08D5BCF5801FF7D58B4218BF704741
:104C800008BF824270474FF4001C1CEB410F38BF35
:104C90001CEB430F01D28B42704770B500F0EEF869
:104CA000922449004FF000514FF08053FFF760BE4F
:104CB00051EA030C17D41CF5801F58BFBCF5801FA8
:104CC00000F10680994218BF704708BF90427047B4
:104CD00007D711F5801F58BF13F5801F19D49942CB
:104CE0007047894270471CF5801F08D5BCF5801FAE
:104CF000F7D58B4218BF704708BF824270474FF408
:104D0000001C1CEB410F38BF1CEB430F01D28B4240
:104D1000704770B500F0B2F8922449004FF000518E
:104D20004FF08053FFF724BE70B5DFF848C11CEA8E
:104D3000111E1EBF1CEA13159EEA0C0F95EA0C0FFC
:104D400000F06F8081EA03044EEAD47EAE4421EA8B
:104D50004C1123EA4C1341F4801143F48013AEF15B
:104D60007F7EA1FB024CA0FB0365361955EB0C05B9
:104D7000A1FB034C4CF10003A0FB021C16EB0C063C
:104D8000654153F10003094218BF46F0010613F4D0
:104D9000007F0BD14FEA03314FEA053041EA15514C
:104DA00040EA165034036FF003020AE04FEAC321D1
:104DB0004FEAC52041EA555140EA5650F4026FF0DF
:104DC000020202EB2E4201EB025585EACE710AD0B7
:104DD0005FEA440C18BF24F0004450F1000041F198
:104DE000000120EAD47040F2FE7C624500D270BD22
:104DF000A84214BF4FF080444FF04044002E08BF3B
:104E00000024BEF1806FA8BFA1F1C041BDE8704091
:104E100080F2828001F1C04101F000414FF00000BA
:104E200070470CEA13159EEA0C0F18BF95EA0C0F99
:104E300006D081EA030E4FF000000EF0004170BD75
:104E400000F01CF88900013E00F007B800F009B836
:104E50004FEA430C5FEA5C5C08D081EA030100F092
:104E60005BB84FEA410C5FEA5C5CF6D102494FF057
:104E7000000070470000FF070000F87F0EF1020EEF
:104E80002EF0030E5EF8046B364205D4012A43EB84
:104E9000030515F5001F12D8012841EB010C1CF584
:104EA000001F0CD80ED14FEAD17C0CEB4C0C0CF14E
:104EB000020C15F5001F08BF4CEBD37C04E04FF04B
:104EC000080C01E04FEAD37C0CEB4C0526FA05F602
:104ED00006F00706B6F1040C06D20EEB860CBDE810
:104EE00070404CF0010C6047DFE80CF0090B020247
:104EF0004FF00041A1F500214FF0000070BD1946B0
:104F00001046012851EB010418BFD4F5001484BFEA
:104F1000002001F0004170BD0808A0F500114FEA23
:104F20003101704753EA010C17D41CF5801F58BF9C
:104F3000BCF5801F00F106808B4218BF704708BF88
:104F40008242704707D713F5801F58BF11F5801FA5
:104F500019D48B4270479B4270471CF5801F08D5BF
:104F6000BCF5801FF7D5994218BF704708BF904223
:104F700070474FF4001C1CEB430F38BF1CEB410F74
:104F800001D2994270470FB40CBC03BCFFF7C1BEFD
:104F900010B591EA030F48BF83F000433FF540ACE2
:104FA000841A71EB030C07D28CF0004C121943EBFE
:104FB0000C03001B61EB0C014FEA1154A4EB135CD2
:104FC000DFF89CE11EEA430F18BF9EEA445F00F041
:104FD000B08021EA045123EA6E035242C3EB6E0310
:104FE00038BF5B1EDCF1200E25D322FA0CFE10EB3D
:104FF0000E0043FA0CFE41EB0E01CCF1200E03FA39
:105000000EFE10EB0E00CCF1200E51F1000129D460
:1050100001EB045112FA0EF2BDE8104058BF704780
:10502000401C1CBFB2F1004F704700280CBF491C48
:1050300020F00100704712EB020E43EB030218BF91
:105040004FF0010E4EEA4202ACF1200CDCF11E0ED4
:1050500054D943FA0CFE10EB0E00CCF11E0E51F1A8
:10506000FF31D5D50EF1010E12FA0EFE404141EB93
:10507000010101EB445C5FEA5C5C10D901EB045177
:1050800010EBDE7038BFBEF1004FBDE8104018BF16
:10509000704700280CBF491C20F00100704730D237
:1050A0004FEAD42C24F4006411F500111BD0B1FA9E
:1050B00081F20B3AA41AA41ED2F12003914030FAD7
:1050C00003F31943904001EBCC7101EB0451002C28
:1050D000BDE81040A8BF704701F1C04101F0004198
:1050E0004FF000007047B0FA80F310FA03F100D1DE
:1050F00010BDE41A173C4805C90AE4E701EB045166
:1051000010BD49104FEA300001EB0451BDE81040DA
:1051100002E04FF0000170474A0008BF0042F8D09B
:10512000B2F5001F28BF704701F000414FF00000AA
:1051300070479EEA445F07D011EA5E0FBDE8104059
:1051400004BF002100207047BDE8104070B5FFF794
:1051500095FE00BF40DFF63E104683F000417047E9
:105160000000E0FF43004FEAD30C4FEA3C0C434001
:105170001FBF40070CF1605113F0FE4F70471CF049
:10518000006F03D10CF00041002070470CF0004389
:1051900043EA507040EACC0010B500F0EEFA00BFD0
:1051A000000000924FEA0001FFF7B6BE4FF0004149
:1051B000A1F500214FF000007047000090EA010FB8
:1051C00048BF81F0004100F12A83421A3CBF801A97
:1051D00089184FEAD052A2EBD1534FF07F4C1CEA12
:1051E000410F18BF9CEA026F00F03B804FF0004C6B
:1051F0004CEA00204CEA012121FA03FC10EB0C0CD4
:105200001ED202F1FF325FEA1C2040EBC25038BFD1
:1052100070471CF07F0F4FEA400C18BFBCF17F4F66
:1052200038BF7047C3F12003994008BF20F0010048
:10523000BCF17F4F38BF7047A0F1C04000F0E3BA27
:105240004FEA3C00000A40EBC25028BF1CF0FF0FA1
:105250004FEA400CE6D018BFBCF17F4F38BF704713
:10526000EAE79CEA026F05D010EA5C0F08BF00F085
:105270000040704710B500F080FA00BF64FBBE3EEE
:1052800010B500F0F5F80CBF0120002010BD10B5DE
:1052900000F0EEF814BF0120002010BD10B500F0A2
:1052A00083F98CBF0120002010BD10B500F07CF9FF
:1052B0002CBF0120002010BD10B500F0A9F994BF4B
:1052C0000120002010BD10B500F0A2F934BF01206C
:1052D000002010BD401058BFC0F14040491058BFD9
:1052E000C1F140418142EFF3008070474FF47F0CE1
:1052F0001CEAD0121EBF1CEAD11392EA0C0F93EAEB
:105300000C0F00F0858090EA010F48BF42F48072D4
:1053100040F4000C41F400002CF07F4120F07F406D
:1053200000B5A2EB030281420FF2081CACEB504E19
:105330009EF800E0C0F100004FEA4E0E00FB0EFCAC
:1053400038BF49004FEA2C1C0CFB0EF34FEACE1E6F
:105350000EEB635E4FEA112C0EFB0CFC4FEAC121F1
:105360004FEA1C5300FB031102F5FA024FEA112C1D
:105370000EFB0CFC4FEA01314FEADC4C00FB0C1138
:1053800042EB2242C14228BF09184CEB03335DF8BF
:1053900004EB10EB410143EBC250B2F57C0F38BF78
:1053A000704729D512F0F00F1CBF00F1C04000F08B
:1053B00000407047008182838485868788898B8C32
:1053C0008D8E8F919293959697999A9C9D9FA0A26E
:1053D000A3A5A7A8AAACAEB0B2B3B5B7B9BCBEC0BE
:1053E000C2C5C7C9CCCED1D4D7D9DCDFE2E6E9EC5F
:1053F000F0F3F7FAFE0000004FEA400C0CF1807C5D
:10540000BCF17E4F28BF7047B0F1C04000F0FBB93F
:105410000CEAD11390EA010F48BF42F48072624552
:1054200038BF634507D213F47F0F16D080EA01001E
:1054300000F00040704710B500F09FF9097EFC3E77
:1054400000F005B880EA010000F00040704780EAF3
:10545000010000F0004000F0D6B912F47F0F04BF45
:105460000248704780EA010000F0CDB90000C07F1B
:1054700050EA010C00F113801CF5000F58BFBCF579
:10548000000F01D48842704707D710F5000F58BFAE
:1054900011F5000F15D488427047894270471CF5FA
:1054A000000F04D5BCF5000FF7D5814270474FF0CF
:1054B000807C1CEB400F38BF1CEB410F01D28142B6
:1054C000704710B500F059F9922449004FF0005090
:1054D0004FF08051FFF7FEBE41000B0ED3F19E024C
:1054E00008D950F400034FEA032323FA02F048BF1F
:1054F0004042704710B500F040F900BF4992248047
:10550000002070476FF0004282EA200070470000E0
:10551000C10DD1F19E0206DB4FEA002343F00043A8
:1055200023FA02F07047004207D54FEA4001B1F17B
:10553000FE4F02D24FF00000704710B500F01DF989
:1055400049922480002070476FEA200070470000D5
:1055500010F0004148BF4042B0FA80F310FA03F265
:10556000C3F19D030BD051EAC35101EB1220530646
:1055700038BF704700F1010008BF20F001007047FC
:10558000B0FA80F310FA03F2C3F19D030AD0D905F3
:1055900001EB1220530638BF704700F1010008BF2D
:1055A00020F001007047000050EA010C00F1138068
:1055B0001CF5000F58BFBCF5000F01D4884270479E
:1055C00007D710F5000F58BF11F5000F15D488420A
:1055D0007047894270471CF5000F04D5BCF5000FD9
:1055E000F7D5814270474FF0807C1CEB400F38BFED
:1055F0001CEB410F01D28142704710B500F0BDF89D
:10560000922449004FF080504FF00051FFF762BEE6
:1056100050EA010C00F113801CF5000F58BFBCF5D7
:10562000000F01D48842704707D710F5000F58BF0C
:1056300011F5000F15D488427047894270471CF558
:10564000000F04D5BCF5000FF7D5814270474FF02D
:10565000807C1CEB400F38BF1CEB410F01D2814214
:10566000704710B500F089F8922449004FF00050BF
:105670004FF08051FFF72EBE4FF47F0C1CEAD01282
:105680001EBF1CEAD11392EA0C0F93EA0C0F00F034
:10569000478090EA010F48BF42F480724FF0004CFF
:1056A0004CEA00204CEA012102EB0302A0FB0113AB
:1056B000A2F50002002918BF43F001035B0028BFD8
:1056C0004FEA330342EB22425FEA132C4CEBC25009
:1056D0002EBFBCEB436FB2F57C0F70474FEA036CF3
:1056E000BCF1004F08BF20F00100B2F57C0F38BFBD
:1056F00070470BD582F0FF0212F5803FC8BF70479C
:1057000000F1C040D8BF00F00040704700F5000C29
:105710005FEA4C0C48BF7047B0F1C04000F073B86E
:105720000CEAD11390EA010F48BF42F4807262453F
:1057300038BF634504D280EA010000F000407047A2
:1057400010B500F01AF800BF8900013E00F007B85C
:1057500000F009B85FEA410C5FEA1C6C08D080EAEF
:10576000010000F050B85FEA400C5FEA1C6CF6D113
:105770004FF00040A0F5800070470EF1020E2EF0B1
:10578000030E5EF8044B244204D44FEA4102B2F106
:105790007F4F11D84FEA4003B3F17F4F0CD80ED1A1
:1057A0004FEAD07C0CEB4C0C0CF1020CB2F17F4FA9
:1057B00008BF4CEBD17C04E04FF0080C01E04FEA4D
:1057C000D17C0CEB4C0324FA03F404F00704B4F18D
:1057D000040C06D20EEB840CBDE810404CF0010C1A
:1057E0006047DFE80CF0070802024FF00040A0F528
:1057F000800010BD0846420018BFD2F1807288BFF9
:1058000000F0004010BDFF2141EAD050C0057047B4
:1058100090EA010F48BF81F000413FF5D6AC421A33
:1058200004D882F00042A0EB020011444FEAD052AB
:10583000A2EBD1534FF07F4C1CEA410F18BF9CEAFA
:10584000026F4AD04FF0004C4CEA00204CEA012194
:1058500021FA03FCB0EB0C0C0FD412F0FE0F36D083
:105860005FEA4C001DD5001240EBC25038BF7047B4
:105870001CF03F0F18BF70470BE05FEA1C20A2F13D
:10588000010240EBC25038BF70471CF07F0F18BFB9
:105890007047C3F12003994014BF401E20F001005F
:1058A00070474FEA1223800808BF7047B0FA80FCA7
:1058B000A2EB0C02CCF1280C60FA0CF093EA122F48
:1058C00004BF00EBC25070474FEAC3707047130A21
:1058D0005FEADC1008BF7047F6E79CEA026F04D06D
:1058E00010EA5C0F08BF0020704710B5FFF745FFB6
:1058F00040DFF63E81F0004070474FF000007047F7
:10590000FAF7FFBD0CF00F03092B08BF082000F0C9
:105910005F800A2B0BD0082B18BF704708BF1CF004
:10592000400F0AD04FF000004FF0000170471CF00C
:10593000400F18BF4FF0004070471CF0100F08D008
:1059400000F07F4220F0704342EAD3014FEA4370F7
:10595000704700F0604021F07F4242EA000201F00F
:105960007F4040EA727070474FF0FF0C4CF4E06CDF
:105970001CEA11531CBF9CEA030C9445C2BFDA42D7
:1059800001EB02517047002B0DD0BCF1000F0FD07E
:1059900001F00041002AA4BF41F0E04141F07F61E5
:1059A0004FF00000704701F000414FF000007047D9
:1059B00050EA01334FF09B0C18BF4CF0806C7EF422
:1059C000CFAF7047FBF7CAB9FBF77CBBFBF70ABD4B
:1059D0001CF4801F11D01CF4E02F03D06FEACC31EF
:1059E000490070474FF04050EFF3008222F07042C0
:1059F00042EA000282F3008870474FF000007047CF
:105A000002400000000000A000000000054000006F
:105A1000000000C8000000000C4000000000409C96
:105A200000000000194000000020BCBE0000000083
:105A300034400000BFC91B8E00000004B5400000C8
:105A4000504BCFD06607E2CF010000006C41000050
:105A50003E8251AADFEEA73401000000D9420000C7
:105A6000DCB5A0E23A301F97FFFFFFFFB44500000E
:105A7000FD25A0C8E9A3C14FFFFFFFFFFF3F0000C6
:105A80000000008000000000FF3F000000000080D8
:105A90000000000001020000000000000000010200
:105AA00003040607080900000000010203040203C2
:105AB0000405060708090A0B0C0D0E0F1010000054
:105AC000205C0008000000201000000028010008F1
:105AD000305C000810000020D808000044010008D5
